:1000000004308A001F2C0000FF00030E8301A100B2
:100010000A08A0008A010408A2007708A300780853
:10002000A4007908A5007A08A600831383128C30F7
:100030008400001C1D280C182E2822088400230888
:10004000F7002408F8002508F9002608FA0020081F
:100050008A00210E8300FF0E7F0E09008A110A120A
:1000600042280A108A100A11820728340C340134FD
:1000700006348A2945294B27AD20D224C616D92A11
:10008000D32A46008E01FF308F00B2308E00300F31
:100090004A2863282D083002031D522883160910B0
:1000A000831209102E083002031D5A288316891066
:1000B000831289102F083002031D6228831609114C
:1000C000831209118A28300F8A28B001AD08031D58
:1000D0006E288316091083120910722883160910DE
:1000E00083120914AE08031D7A288316891083121F
:1000F00089107E288316891083128914AF08031D86
:10010000862883160911831209118A28831609117A
:1001100083120915B00A0C108A110A121D288C29A5
:10012000C921C125CC244B003F3084008313000833
:100130000319A8280130F800F701F70B9D28F80BE8
:100140009C284A30F700F70BA328A628800B9A2892
:100150000800460EF039F7000F30060577048600D8
:1001600000000614B328061008000608F700060E63
:100170000F39F80008008316061086100611831246
:1001800086100F3083160605F03886008312061598
:10019000000006140000B5207808C6000610000014
:1001A00006140000B5207808C50006100F3083162D
:1001B000060586008312460EF700F030F705770833
:1001C0004504F8007808C500C51BC128431C8610EB
:1001D000431886140000061100000610440EC500E6
:1001E0000F30C5054508C600A92044080F39C500D1
:1001F000C600A92008000F308316060586000610E9
:100200008610061183128610061106100F30BF00EB
:1002100094200130B1003108033C031C172903303E
:10022000C600A9200530BF009420B10A0B29023076
:10023000C600A9200530BF009420B1013108033C5D
:10024000031C2B2931083120B200C3013208C4003D
:10025000BB20B10A1E298A110A124F2C400B3129EA
:1002600034294030C1003529C10101303F02C107A6
:1002700041088038C200C3014208C400BB20080006
:100280003E08073A03194E290B3A03195329063A37
:1002900003195B29023A0319612966290130BF005D
:1002A000C0002E216B29C3010130C400BB200230E5
:1002B000BF0094206B290130BF000230C0002E2106
:1002C0006B29C3011030C400BB206B290130C3006F
:1002D0003E08C400BB2008000B08B1008B13831636
:1002E00003178C170C140000000083120C087F39D0
:1002F0000319B3290313B20003170D080313B30046
:1003000003170F080313B4003208BE00402133085E
:1003100003178D000313340803178F0083168C17FF
:100320000C140000000083120C0D0E0D7F39031910
:10033000B3290313B20003170D080313B300031707
:100340000F080313B4003208BE004021330803171E
:100350008D000313340803178F008D0A03198F0AC9
:1003600003136F2903170313B11B8B1708003E08F3
:100370000319272AC60042080319272AC6070318AB
:10038000C8297F30C602031C272A0319272ACC2933
:100390008130C6070318272A4608F700F801F9013B
:1003A000FA013F08CA00CA174008C9004108C8003E
:1003B0001830C600C701481CF5294508FA07031C78
:1003C000E729F90A031DE729F80A0319C7174408A2
:1003D000F907031CEE29F80A0319C7174308C000E0
:1003E000C0174008F8070318C717C70DF80CF90C19
:1003F000FA0CCA0CC90CC80C0310C60BDA29013060
:10040000F7070318272AF81B0C2ACA0DFA0DF90D55
:10041000F80DF7030319272ACA1F1D2AFA0A031D1C
:100420001D2AF90A031D1D2AF80A031D1D2AF80CAE
:10043000F90CFA0CF70A0319272A3F08C7004308EA
:10044000C706C71F252AF8172B2AF8132B2AF701EE
:10045000F801F901FA0108001F151F192D2A83164A
:100460001E088312A7001E08A8002808B20027084B
:10047000B1008E30F7003208F8003108F900FA01B7
:10048000F808031D4D2A7908F800F9010830F70231
:10049000F808031D4D2AF701552A0310F81B542AAA
:1004A000F90DF80DF7034D2AF813C101C0012030F2
:1004B000BF007730BE007A08C5007908C40078080C
:1004C000C3007708C200B7217A08B4007908B300E6
:1004D0007808B2007708B1007A08C1007908C00036
:1004E0007808BF007708BE00C501C4014830C300CA
:1004F0008530C200B7217A08AC007908AB007808D3
:10050000AA007708A9008A110A12622C83188B2A84
:10051000463084008313F701F801F901FA01C6019E
:10052000C701C801C9014508440443044204031932
:10053000C92A2030CA000310BE0DBF0DC00DC10D69
:10054000C60DC70DC80DC90D45084902031DB22AC5
:1005500044084802031DB22A43084702031DB22A79
:1005600042084602031CC32A4208C6024308031C71
:10057000430FC7024408031C440FC8024508031C6C
:10058000450FC9020314F70DF80DF90DFA0DCA0B4A
:100590009B2A46088000840A47088000840A48088D
:1005A0008000840A4908800008000408B600350865
:1005B000B8000319F42A3408C1003308C000320817
:1005C000BF003108BE00C501C4012030C300823025
:1005D000C200B7217A08B4007908B3007808B200E5
:1005E0007708B100B80BDB2A3408C1003308C0001B
:1005F0003208BF003108BE003E08B63CBE00FA011A
:100600003F08C200BF170310BF0CC00CC10CFA0C8E
:10061000F90CF80CF70CBE0B032BC21F1A2BF709B1
:10062000F809F909FA09F70A0319F80A0319F90A86
:100630000319FA0A7A08B4007908B3007808B200FE
:100640007708B100B41F312BB603B616B109B20951
:10065000B309B409B10A0319B20A0319B30A031999
:10066000B40A3B30BD009A30BC00CA30BB00BA01AE
:100670000A30B80035080319B60A831431308400F3
:1006800083133408C1003308C0003208BF003108AA
:10069000BE003D08C5003C08C4003B08C3003A0842
:1006A000C20086227808F708031D692B350A380234
:1006B0000319692B360803196B2B0F3938020319FC
:1006C000632B03189B2BB61B9B2B361B6B2B2030ED
:1006D000972B2030B605B61E792BB6123508031DB0
:1006E000B6037708B6002D30BE0040213608F7006B
:1006F000B60135083802031D872B7708B6002E3067
:10070000BE0040213608F7002030B60500303030FA
:10071000B61E972BB6123508031DB6037708B60030
:100720002D30BE0040213608F700B6013030F70703
:100730007708BE00402183103D08C1003C08C0007E
:100740003B08BF003A08BE00C501C401C3010A301E
:10075000C20086227A08BD007908BC007808BB0078
:100760007708BA00B80B3D2B8A110A12C82B0A3041
:10077000BF000130C0002E21023084002C08B400DC
:100780002B08B3002A08B2002908B100B501D52A08
:100790002730BE0040214330BE0040211430BF004E
:1007A00094200130BF000230C0002E2139300317E1
:1007B0008D0000308F0003136C218A110A12632C04
:1007C0003208B9003608B906B91FEB2B0311031024
:1007D000B21B03141E2C3208B9003508BA003108C8
:1007E000BA020319F92BB91F1E2C0308013A830022
:1007F0001E2C3608BA003208BA020319052CB91F9C
:100800001E2C0308013A83001E2C3708BA00330857
:10081000BA020319112CB91F1E2C0308013A8300D8
:100820001E2C3808BA003408BA0203191D2CB91F4F
:100830001E2C0308013A83001E2C031008008316A7
:100840001F149F141F159F1107309C0083131F3026
:10085000830509120030F800053883129200FF303A
:100860008316920085308312900083160C14C030DA
:1008700083128B0401308316850009108910091139
:100880001F1383121F179F1783169F1783121F149E
:1008900083161F109F141F159F158312FB2800300D
:1008A000F8001F08C73978049F000630F700F70BDF
:1008B000572C00008F3003178D0000308F0003137A
:1008C0006C212C2AB72B8A1500288A11612C630011
:101000002C08B4002B08B3002A08B2002908B1004C
:10101000B801B701B601B5018A11E0238A15031C96
:101020001528FF30AD00AE00AF00B401B301B2012E
:10103000B1012C08B8002B08B7002A08B60029080F
:10104000B5008A11E0238A1503182828031D3F28BC
:101050002C08B4002B08B3002A08B2002908B100FC
:10106000B801B701B6018030B5008A11E0238A15B6
:10107000031C3F28AD01FF30AE003330AF00B40198
:10108000B301B2018030B1002C08B8002B08B700C2
:101090002A08B6002908B5008A11E0238A1503182A
:1010A0005328031D6A282C08B4002B08B3002A0813
:1010B000B2002908B100B801B701B6018130B5000E
:1010C0008A11E0238A15031C6A28AD01FF30AE00A7
:1010D0006630AF00B401B301B2018130B1002C0819
:1010E000B8002B08B7002A08B6002908B5008A11F5
:1010F000E0238A1503187E28031D96282C08B400C7
:101100002B08B3002A08B2002908B100B801B701C2
:101110004030B6008130B5008A11E0238A15031CE7
:101120009628AD01FF30AE009930AF00B401B30195
:101130004030B2008130B1002C08B8002B08B70055
:101140002A08B6002908B5008A11E0238A15031879
:10115000AB28031DC2282C08B4002B08B3002A08B2
:10116000B2002908B100B801B701B6018230B5005C
:101170008A11E0238A15031CC228AD01FF30AE009E
:10118000CC30AF00B401B301B2018230B1002C0801
:10119000B8002B08B7002A08B6002908B5008A1144
:1011A000E0238A150318D628031DED282C08B40067
:1011B0002B08B3002A08B2002908B100B801B70112
:1011C0002030B6008230B5008A11E0238A15031C56
:1011D000ED28AD01FF30AE00AF00B401B301203007
:1011E000B2008230B1002C08B8002B08B7002A08E2
:1011F000B6002908B5008A11E0238A1503180229D0
:10120000031D1A292C08B4002B08B3002A08B200C9
:101210002908B100B801B7014030B6008230B500EE
:101220008A11E0238A15031C1A29AD01CC30AE00C7
:10123000FF30AF00B401B3014030B2008230B100E2
:101240002C08B8002B08B7002A08B6002908B500FA
:101250008A11E0238A1503182F29031D47292C081A
:10126000B4002B08B3002A08B2002908B100B80165
:10127000B7016030B6008230B5008A11E0238A15CC
:10128000031C4729AD019930AE00FF30AF00B40117
:10129000B3016030B2008230B1002C08B8002B08D6
:1012A000B7002A08B6002908B5008A11E0238A157C
:1012B00003185C29031D73292C08B4002B08B30004
:1012C0002A08B2002908B100B801B701B60183307D
:1012D000B5008A11E0238A15031C7329AD0166301D
:1012E000AE00FF30AF00B401B301B2018330B100F2
:1012F0002C08B8002B08B7002A08B6002908B5004A
:101300008A11E0238A1503188729031D9F292C08B9
:10131000B4002B08B3002A08B2002908B100B801B4
:10132000B7011030B6008330B5008A11E0238A156A
:10133000031C9F29AD013330AE00FF30AF00B40174
:10134000B3011030B2008330B1002C08B8002B0874
:10135000B7002A08B6002908B5008A11E0238A15CB
:101360000318B429031DCB292C08B4002B08B300A3
:101370002A08B2002908B100B801B7012030B60030
:101380008330B5008A11E0238A15031CCB29AD01F7
:10139000AE01FF30AF00B401B3012030B2008330A2
:1013A000B1002C08B8002B08B7002A08B60029089D
:1013B000B5008A11E0238A150318E029031DF829D6
:1013C0002C08B4002B08B3002A08B2002908B10089
:1013D000B801B7013030B6008330B5008A11E02380
:1013E0008A15031CF8293330AD00AE01FF30AF0081
:1013F000B401B3013030B2008330B1002C08B80022
:101400002B08B7002A08B6002908B5008A11E02386
:101410008A1503180D2A031D252A2C08B4002B0851
:10142000B3002A08B2002908B100B801B701403062
:10143000B6008330B5008A11E0238A15031C252AE3
:101440006630AD00AE01FF30AF00B401B3014030F3
:10145000B2008330B1002C08B8002B08B7002A086E
:10146000B6002908B5008A11E0238A1503183A2A24
:10147000031D522A2C08B4002B08B3002A08B2001E
:101480002908B100B801B7015030B6008330B5006B
:101490008A11E0238A15031C522A9930AD00AE014F
:1014A000FF30AF00B401B3015030B2008330B1005F
:1014B0002C08B8002B08B7002A08B6002908B50088
:1014C0008A11E0238A150318672A031D7F2A2C0836
:1014D000B4002B08B3002A08B2002908B100B801F3
:1014E000B7016030B6008330B5008A11E0238A1559
:1014F000031C7F2ACC30AD00AE01FF30AF00B40139
:10150000B3016030B2008330B1002C08B8002B0862
:10151000B7002A08B6002908B5008A11E0238A1509
:101520000318942A031DAB2A2C08B4002B08B3001F
:101530002A08B2002908B100B801B7017030B6001E
:101540008330B5008A11E0238A15031CAB2AFF30D3
:10155000AD00AE01AF00B401B3017030B200833012
:10156000B1002C08B8002B08B7002A08B6002908DB
:10157000B5008A11E0238A150318C02A031DD72A53
:101580002C08B4002B08B3002A08B2002908B100C7
:10159000B801B701B6018430B5008A11E0238A157D
:1015A000031CD72AFF30AD003330AE00AF01B401C9
:1015B000B301B2018430B1002C08B8002B08B70089
:1015C0002A08B6002908B5008A11E0238A150318F5
:1015D000EB2A031D032B2C08B4002B08B3002A08A8
:1015E000B2002908B100B801B7010830B600843054
:1015F000B5008A11E0238A15031C032BFF30AD00D0
:101600006630AE00AF01B401B3010830B2008430DF
:10161000B1002C08B8002B08B7002A08B60029082A
:10162000B5008A11E0238A150318182B031D302BEF
:101630002C08B4002B08B3002A08B2002908B10016
:10164000B801B7011030B6008430B5008A11E0232C
:101650008A15031C302BFF30AD009930AE00AF016E
:10166000B401B3011030B2008430B1002C08B800CE
:101670002B08B7002A08B6002908B5008A11E02314
:101680008A150318452B031D5D2B2C08B4002B086D
:10169000B3002A08B2002908B100B801B701183018
:1016A000B6008430B5008A11E0238A15031C5D2B37
:1016B000FF30AD00CC30AE00AF01B401B301183043
:1016C000B2008430B1002C08B8002B08B7002A08FB
:1016D000B6002908B5008A11E0238A150318722B79
:1016E000031D892B2C08B4002B08B3002A08B20074
:1016F0002908B100B801B7012030B6008430B50028
:101700008A11E0238A15031C892BFF30AD00AE003F
:10171000AF01B401B3012030B2008430B1002C0815
:10172000B8002B08B7002A08B6002908B5008A11AE
:10173000E0238A1503189E2B031DB52B2C08B4003B
:101740002B08B3002A08B2002908B100B801B7017C
:101750002830B6008430B5008A11E0238A15031CB6
:10176000B52B3330AD00AE01AF01B401B301283069
:10177000B2008430B1002C08B8002B08B7002A084A
:10178000B6002908B5008A11E0238A150318CA2B70
:10179000031DE12B2C08B4002B08B3002A08B2006B
:1017A0002908B100B801B7013030B6008430B50067
:1017B0008A11E0238A15031CE12B6630AD00AE01CF
:1017C000AF01B401B3013030B2008430B1002C0855
:1017D000B8002B08B7002A08B6002908B5008A11FE
:1017E000E0238A150318F62B031D0D2C2C08B400DA
:1017F0002B08B3002A08B2002908B100B801B701CC
:101800003830B6008430B5008A11E0238A15031CF5
:101810000D2C9930AD00AE01AF01B401B3013830E9
:10182000B2008430B1002C08B8002B08B7002A0899
:10183000B6002908B5008A11E0238A150318222C66
:10184000031D392C2C08B4002B08B3002A08B20061
:101850002908B100B801B7014030B6008430B500A6
:101860008A11E0238A15031C392CCC30AD00AE015F
:10187000AF01B401B3014030B2008430B1002C0894
:10188000B8002B08B7002A08B6002908B5008A114D
:10189000E0238A1503184E2C031D522CFF30AD0097
:0C18A000AE01AF01B0018A110A12652CE4
:02400E00393F38
:00000001FF
;PIC16F877A
;CRC=D33A  CREATED="04-Ara-18 11:52"
